{
  "abi": [
    {
      "type": "constructor",
      "inputs": [
        {
          "name": "_endpoint",
          "type": "address",
          "internalType": "address"
        },
        {
          "name": "_delegate",
          "type": "address",
          "internalType": "address"
        },
        {
          "name": "_owner",
          "type": "address",
          "internalType": "address"
        },
        {
          "name": "_token",
          "type": "address",
          "internalType": "address"
        },
        {
          "name": "_dstEid",
          "type": "uint32",
          "internalType": "uint32"
        }
      ],
      "stateMutability": "nonpayable"
    },
    {
      "type": "function",
      "name": "bridgeStorage",
      "inputs": [],
      "outputs": [
        {
          "name": "",
          "type": "address",
          "internalType": "contract IBridgeStorage"
        }
      ],
      "stateMutability": "view"
    },
    {
      "type": "function",
      "name": "bridgeTo",
      "inputs": [
        {
          "name": "recipient",
          "type": "address",
          "internalType": "address"
        }
      ],
      "outputs": [],
      "stateMutability": "payable"
    },
    {
      "type": "function",
      "name": "bridgedAmount",
      "inputs": [
        {
          "name": "user",
          "type": "address",
          "internalType": "address"
        }
      ],
      "outputs": [
        {
          "name": "",
          "type": "uint256",
          "internalType": "uint256"
        }
      ],
      "stateMutability": "view"
    },
    {
      "type": "function",
      "name": "endpoint",
      "inputs": [],
      "outputs": [
        {
          "name": "",
          "type": "address",
          "internalType": "contract ILayerZeroEndpointV2"
        }
      ],
      "stateMutability": "view"
    },
    {
      "type": "function",
      "name": "gasLimit",
      "inputs": [],
      "outputs": [
        {
          "name": "",
          "type": "uint128",
          "internalType": "uint128"
        }
      ],
      "stateMutability": "view"
    },
    {
      "type": "function",
      "name": "oAppVersion",
      "inputs": [],
      "outputs": [
        {
          "name": "senderVersion",
          "type": "uint64",
          "internalType": "uint64"
        },
        {
          "name": "receiverVersion",
          "type": "uint64",
          "internalType": "uint64"
        }
      ],
      "stateMutability": "view"
    },
    {
      "type": "function",
      "name": "owner",
      "inputs": [],
      "outputs": [
        {
          "name": "",
          "type": "address",
          "internalType": "address"
        }
      ],
      "stateMutability": "view"
    },
    {
      "type": "function",
      "name": "peers",
      "inputs": [
        {
          "name": "eid",
          "type": "uint32",
          "internalType": "uint32"
        }
      ],
      "outputs": [
        {
          "name": "peer",
          "type": "bytes32",
          "internalType": "bytes32"
        }
      ],
      "stateMutability": "view"
    },
    {
      "type": "function",
      "name": "quoteBridge",
      "inputs": [],
      "outputs": [
        {
          "name": "fee",
          "type": "tuple",
          "internalType": "struct MessagingFee",
          "components": [
            {
              "name": "nativeFee",
              "type": "uint256",
              "internalType": "uint256"
            },
            {
              "name": "lzTokenFee",
              "type": "uint256",
              "internalType": "uint256"
            }
          ]
        }
      ],
      "stateMutability": "view"
    },
    {
      "type": "function",
      "name": "renounceOwnership",
      "inputs": [],
      "outputs": [],
      "stateMutability": "nonpayable"
    },
    {
      "type": "function",
      "name": "setBridgeStorage",
      "inputs": [
        {
          "name": "_bridgeStorage",
          "type": "address",
          "internalType": "address"
        }
      ],
      "outputs": [],
      "stateMutability": "nonpayable"
    },
    {
      "type": "function",
      "name": "setDelegate",
      "inputs": [
        {
          "name": "_delegate",
          "type": "address",
          "internalType": "address"
        }
      ],
      "outputs": [],
      "stateMutability": "nonpayable"
    },
    {
      "type": "function",
      "name": "setGasLimit",
      "inputs": [
        {
          "name": "_gasLimit",
          "type": "uint128",
          "internalType": "uint128"
        }
      ],
      "outputs": [],
      "stateMutability": "nonpayable"
    },
    {
      "type": "function",
      "name": "setPeer",
      "inputs": [
        {
          "name": "_eid",
          "type": "uint32",
          "internalType": "uint32"
        },
        {
          "name": "_peer",
          "type": "bytes32",
          "internalType": "bytes32"
        }
      ],
      "outputs": [],
      "stateMutability": "nonpayable"
    },
    {
      "type": "function",
      "name": "transferOwnership",
      "inputs": [
        {
          "name": "newOwner",
          "type": "address",
          "internalType": "address"
        }
      ],
      "outputs": [],
      "stateMutability": "nonpayable"
    },
    {
      "type": "function",
      "name": "transferStorageOwnership",
      "inputs": [
        {
          "name": "newOwner",
          "type": "address",
          "internalType": "address"
        }
      ],
      "outputs": [],
      "stateMutability": "nonpayable"
    },
    {
      "type": "event",
      "name": "BridgeRequested",
      "inputs": [
        {
          "name": "recipient",
          "type": "address",
          "indexed": true,
          "internalType": "address"
        },
        {
          "name": "amount",
          "type": "uint256",
          "indexed": false,
          "internalType": "uint256"
        },
        {
          "name": "user",
          "type": "address",
          "indexed": true,
          "internalType": "address"
        },
        {
          "name": "receipt",
          "type": "tuple",
          "indexed": false,
          "internalType": "struct MessagingReceipt",
          "components": [
            {
              "name": "guid",
              "type": "bytes32",
              "internalType": "bytes32"
            },
            {
              "name": "nonce",
              "type": "uint64",
              "internalType": "uint64"
            },
            {
              "name": "fee",
              "type": "tuple",
              "internalType": "struct MessagingFee",
              "components": [
                {
                  "name": "nativeFee",
                  "type": "uint256",
                  "internalType": "uint256"
                },
                {
                  "name": "lzTokenFee",
                  "type": "uint256",
                  "internalType": "uint256"
                }
              ]
            }
          ]
        }
      ],
      "anonymous": false
    },
    {
      "type": "event",
      "name": "BridgeStorageUpdated",
      "inputs": [
        {
          "name": "oldStorage",
          "type": "address",
          "indexed": true,
          "internalType": "address"
        },
        {
          "name": "newStorage",
          "type": "address",
          "indexed": true,
          "internalType": "address"
        }
      ],
      "anonymous": false
    },
    {
      "type": "event",
      "name": "GasLimitUpdated",
      "inputs": [
        {
          "name": "oldLimit",
          "type": "uint128",
          "indexed": false,
          "internalType": "uint128"
        },
        {
          "name": "newLimit",
          "type": "uint128",
          "indexed": false,
          "internalType": "uint128"
        }
      ],
      "anonymous": false
    },
    {
      "type": "event",
      "name": "OwnershipTransferred",
      "inputs": [
        {
          "name": "previousOwner",
          "type": "address",
          "indexed": true,
          "internalType": "address"
        },
        {
          "name": "newOwner",
          "type": "address",
          "indexed": true,
          "internalType": "address"
        }
      ],
      "anonymous": false
    },
    {
      "type": "event",
      "name": "PeerSet",
      "inputs": [
        {
          "name": "eid",
          "type": "uint32",
          "indexed": false,
          "internalType": "uint32"
        },
        {
          "name": "peer",
          "type": "bytes32",
          "indexed": false,
          "internalType": "bytes32"
        }
      ],
      "anonymous": false
    },
    {
      "type": "error",
      "name": "BalanceLessThanBridged",
      "inputs": []
    },
    {
      "type": "error",
      "name": "InsufficientNativeFee",
      "inputs": []
    },
    {
      "type": "error",
      "name": "InvalidBridgeStorage",
      "inputs": []
    },
    {
      "type": "error",
      "name": "InvalidDelegate",
      "inputs": []
    },
    {
      "type": "error",
      "name": "InvalidEndpointCall",
      "inputs": []
    },
    {
      "type": "error",
      "name": "InvalidGasLimit",
      "inputs": []
    },
    {
      "type": "error",
      "name": "InvalidOptionType",
      "inputs": [
        {
          "name": "optionType",
          "type": "uint16",
          "internalType": "uint16"
        }
      ]
    },
    {
      "type": "error",
      "name": "LzTokenUnavailable",
      "inputs": []
    },
    {
      "type": "error",
      "name": "NoDelta",
      "inputs": []
    },
    {
      "type": "error",
      "name": "NoPeer",
      "inputs": [
        {
          "name": "eid",
          "type": "uint32",
          "internalType": "uint32"
        }
      ]
    },
    {
      "type": "error",
      "name": "NotEnoughNative",
      "inputs": [
        {
          "name": "msgValue",
          "type": "uint256",
          "internalType": "uint256"
        }
      ]
    },
    {
      "type": "error",
      "name": "OnlyPeer",
      "inputs": [
        {
          "name": "eid",
          "type": "uint32",
          "internalType": "uint32"
        },
        {
          "name": "sender",
          "type": "bytes32",
          "internalType": "bytes32"
        }
      ]
    },
    {
      "type": "error",
      "name": "OwnableInvalidOwner",
      "inputs": [
        {
          "name": "owner",
          "type": "address",
          "internalType": "address"
        }
      ]
    },
    {
      "type": "error",
      "name": "OwnableUnauthorizedAccount",
      "inputs": [
        {
          "name": "account",
          "type": "address",
          "internalType": "address"
        }
      ]
    },
    {
      "type": "error",
      "name": "RecipientZero",
      "inputs": []
    },
    {
      "type": "error",
      "name": "ReentrancyGuardReentrantCall",
      "inputs": []
    },
    {
      "type": "error",
      "name": "SafeCastOverflowedUintDowncast",
      "inputs": [
        {
          "name": "bits",
          "type": "uint8",
          "internalType": "uint8"
        },
        {
          "name": "value",
          "type": "uint256",
          "internalType": "uint256"
        }
      ]
    },
    {
      "type": "error",
      "name": "SafeERC20FailedOperation",
      "inputs": [
        {
          "name": "token",
          "type": "address",
          "internalType": "address"
        }
      ]
    }
  ],
  "bytecode": {
    "object": "0x60e060405262030d4060045f6101000a8154816fffffffffffffffffffffffffffffffff02191690836fffffffffffffffffffffffffffffffff16021790555034801561004a575f5ffd5b50604051612905380380612905833981810160405281019061006c91906103a4565b8484845f73ffffffffffffffffffffffffffffffffffffffff168173ffffffffffffffffffffffffffffffffffffffff16036100df575f6040517f1e4fbdf70000000000000000000000000000000000000000000000000000000081526004016100d6919061042a565b60405180910390fd5b6100ee8161024c60201b60201c565b508173ffffffffffffffffffffffffffffffffffffffff1660808173ffffffffffffffffffffffffffffffffffffffff16815250505f73ffffffffffffffffffffffffffffffffffffffff168173ffffffffffffffffffffffffffffffffffffffff1603610188576040517fb586360400000000000000000000000000000000000000000000000000000000815260040160405180910390fd5b60805173ffffffffffffffffffffffffffffffffffffffff1663ca5eb5e1826040518263ffffffff1660e01b81526004016101c3919061042a565b5f604051808303815f87803b1580156101da575f5ffd5b505af11580156101ec573d5f5f3e3d5ffd5b50505050505060016002819055508173ffffffffffffffffffffffffffffffffffffffff1660a08173ffffffffffffffffffffffffffffffffffffffff16815250508063ffffffff1660c08163ffffffff16815250505050505050610443565b5f5f5f9054906101000a900473ffffffffffffffffffffffffffffffffffffffff169050815f5f6101000a81548173ffffffffffffffffffffffffffffffffffffffff021916908373ffffffffffffffffffffffffffffffffffffffff1602179055508173ffffffffffffffffffffffffffffffffffffffff168173ffffffffffffffffffffffffffffffffffffffff167f8be0079c531659141344cd1fd0a4f28419497f9722a3daafe3b4186f6b6457e060405160405180910390a35050565b5f5ffd5b5f73ffffffffffffffffffffffffffffffffffffffff82169050919050565b5f61033a82610311565b9050919050565b61034a81610330565b8114610354575f5ffd5b50565b5f8151905061036581610341565b92915050565b5f63ffffffff82169050919050565b6103838161036b565b811461038d575f5ffd5b50565b5f8151905061039e8161037a565b92915050565b5f5f5f5f5f60a086880312156103bd576103bc61030d565b5b5f6103ca88828901610357565b95505060206103db88828901610357565b94505060406103ec88828901610357565b93505060606103fd88828901610357565b925050608061040e88828901610390565b9150509295509295909350565b61042481610330565b82525050565b5f60208201905061043d5f83018461041b565b92915050565b60805160a05160c05161246761049e5f395f81816104a40152818161061d015261068901525f610c9c01525f818161073b015281816109cf01528181610eaa01528181610ff801528181611327015261141f01526124675ff3fe6080604052600436106100f2575f3560e01c80639a9f2e0611610089578063d3d8257811610058578063d3d82578146102e9578063ee0b544514610313578063f2fde38b1461033b578063f68016b714610363576100f2565b80639a9f2e0614610235578063a1da9dae1461025d578063bb0b6a5314610285578063ca5eb5e1146102c1576100f2565b80635c6d3da4116100c55780635c6d3da4146101af5780635e280f11146101cb578063715018a6146101f55780638da5cb5b1461020b576100f2565b806317442b70146100f65780633400288b14610121578063348f020914610149578063472fa44314610185575b5f5ffd5b348015610101575f5ffd5b5061010a61038d565b6040516101189291906117d0565b60405180910390f35b34801561012c575f5ffd5b5061014760048036038101906101429190611870565b61039a565b005b348015610154575f5ffd5b5061016f600480360381019061016a9190611908565b6103b0565b60405161017c919061194b565b60405180910390f35b348015610190575f5ffd5b50610199610451565b6040516101a691906119a0565b60405180910390f35b6101c960048036038101906101c49190611908565b6104d3565b005b3480156101d6575f5ffd5b506101df610739565b6040516101ec9190611a14565b60405180910390f35b348015610200575f5ffd5b5061020961075d565b005b348015610216575f5ffd5b5061021f610770565b60405161022c9190611a3c565b60405180910390f35b348015610240575f5ffd5b5061025b60048036038101906102569190611908565b610797565b005b348015610268575f5ffd5b50610283600480360381019061027e9190611a9a565b6108c7565b005b348015610290575f5ffd5b506102ab60048036038101906102a69190611ac5565b6109b0565b6040516102b89190611aff565b60405180910390f35b3480156102cc575f5ffd5b506102e760048036038101906102e29190611908565b6109c5565b005b3480156102f4575f5ffd5b506102fd610a56565b60405161030a9190611b38565b60405180910390f35b34801561031e575f5ffd5b5061033960048036038101906103349190611908565b610a7b565b005b348015610346575f5ffd5b50610361600480360381019061035c9190611908565b610b0d565b005b34801561036e575f5ffd5b50610377610b91565b6040516103849190611b60565b60405180910390f35b5f5f60015f915091509091565b6103a2610bb2565b6103ac8282610c39565b5050565b5f60035f9054906101000a900473ffffffffffffffffffffffffffffffffffffffff1673ffffffffffffffffffffffffffffffffffffffff1663b7b8ceb3836040518263ffffffff1660e01b815260040161040b9190611a3c565b602060405180830381865afa158015610426573d5f5f3e3d5ffd5b505050506040513d601f19601f8201168201806040525081019061044a9190611ba3565b9050919050565b610459611767565b5f610462610c98565b9150505f600182610471610e63565b60405160200161048393929190611bce565b60405160208183030381529060405290505f61049d610e6a565b90506104cb7f000000000000000000000000000000000000000000000000000000000000000083835f610ea0565b935050505090565b6104db610f81565b5f73ffffffffffffffffffffffffffffffffffffffff168173ffffffffffffffffffffffffffffffffffffffff1603610540576040517f3d9eb1db00000000000000000000000000000000000000000000000000000000815260040160405180910390fd5b5f5f61054a610c98565b9150915060035f9054906101000a900473ffffffffffffffffffffffffffffffffffffffff1673ffffffffffffffffffffffffffffffffffffffff1663a0f444b8610593610e63565b846040518363ffffffff1660e01b81526004016105b1929190611c03565b5f604051808303815f87803b1580156105c8575f5ffd5b505af11580156105da573d5f5f3e3d5ffd5b505050505f83826105e9610e63565b6040516020016105fb93929190611bce565b60405160208183030381529060405290505f610615610e6a565b90505f6106447f000000000000000000000000000000000000000000000000000000000000000084845f610ea0565b9050805f0151341015610683576040517f9c92bdfb00000000000000000000000000000000000000000000000000000000815260040160405180910390fd5b5f6106b87f00000000000000000000000000000000000000000000000000000000000000008585856106b3610e63565b610fc5565b90506106c2610e63565b73ffffffffffffffffffffffffffffffffffffffff168773ffffffffffffffffffffffffffffffffffffffff167fb7a8fd64ccf9bc14113db8da652400c70061bba546c0732c14823138cffc62ed8784604051610720929190611cb5565b60405180910390a35050505050506107366110db565b50565b7f000000000000000000000000000000000000000000000000000000000000000081565b610765610bb2565b61076e5f6110e5565b565b5f5f5f9054906101000a900473ffffffffffffffffffffffffffffffffffffffff16905090565b61079f610bb2565b5f73ffffffffffffffffffffffffffffffffffffffff168173ffffffffffffffffffffffffffffffffffffffff1603610804576040517f8848062300000000000000000000000000000000000000000000000000000000815260040160405180910390fd5b5f60035f9054906101000a900473ffffffffffffffffffffffffffffffffffffffff1690508160035f6101000a81548173ffffffffffffffffffffffffffffffffffffffff021916908373ffffffffffffffffffffffffffffffffffffffff1602179055508173ffffffffffffffffffffffffffffffffffffffff168173ffffffffffffffffffffffffffffffffffffffff167f939d27c079a71a72f299a5c806b3bb461e220e2b010c26ed2769771ff64dd08d60405160405180910390a35050565b6108cf610bb2565b5f816fffffffffffffffffffffffffffffffff161161091a576040517f98bdb2e000000000000000000000000000000000000000000000000000000000815260040160405180910390fd5b5f60045f9054906101000a90046fffffffffffffffffffffffffffffffff1690508160045f6101000a8154816fffffffffffffffffffffffffffffffff02191690836fffffffffffffffffffffffffffffffff1602179055507f89200afd487aab0afaac512be478a60dc59fa2ac8c0a50d3ccd0cd252ed7ee5781836040516109a4929190611cdc565b60405180910390a15050565b6001602052805f5260405f205f915090505481565b6109cd610bb2565b7f000000000000000000000000000000000000000000000000000000000000000073ffffffffffffffffffffffffffffffffffffffff1663ca5eb5e1826040518263ffffffff1660e01b8152600401610a269190611a3c565b5f604051808303815f87803b158015610a3d575f5ffd5b505af1158015610a4f573d5f5f3e3d5ffd5b5050505050565b60035f9054906101000a900473ffffffffffffffffffffffffffffffffffffffff1681565b610a83610bb2565b60035f9054906101000a900473ffffffffffffffffffffffffffffffffffffffff1673ffffffffffffffffffffffffffffffffffffffff1663ee0b5445826040518263ffffffff1660e01b8152600401610add9190611a3c565b5f604051808303815f87803b158015610af4575f5ffd5b505af1158015610b06573d5f5f3e3d5ffd5b5050505050565b610b15610bb2565b5f73ffffffffffffffffffffffffffffffffffffffff168173ffffffffffffffffffffffffffffffffffffffff1603610b85575f6040517f1e4fbdf7000000000000000000000000000000000000000000000000000000008152600401610b7c9190611a3c565b60405180910390fd5b610b8e816110e5565b50565b60045f9054906101000a90046fffffffffffffffffffffffffffffffff1681565b610bba610e63565b73ffffffffffffffffffffffffffffffffffffffff16610bd8610770565b73ffffffffffffffffffffffffffffffffffffffff1614610c3757610bfb610e63565b6040517f118cdaa7000000000000000000000000000000000000000000000000000000008152600401610c2e9190611a3c565b60405180910390fd5b565b8060015f8463ffffffff1663ffffffff1681526020019081526020015f20819055507f238399d427b947898edb290f5ff0f9109849b1c3ba196a42e35f00c50a54b98b8282604051610c8c929190611d12565b60405180910390a15050565b5f5f7f000000000000000000000000000000000000000000000000000000000000000073ffffffffffffffffffffffffffffffffffffffff166370a08231610cde610e63565b6040518263ffffffff1660e01b8152600401610cfa9190611a3c565b602060405180830381865afa158015610d15573d5f5f3e3d5ffd5b505050506040513d601f19601f82011682018060405250810190610d399190611ba3565b91505f60035f9054906101000a900473ffffffffffffffffffffffffffffffffffffffff1673ffffffffffffffffffffffffffffffffffffffff1663b7b8ceb3610d81610e63565b6040518263ffffffff1660e01b8152600401610d9d9190611a3c565b602060405180830381865afa158015610db8573d5f5f3e3d5ffd5b505050506040513d601f19601f82011682018060405250810190610ddc9190611ba3565b9050808311610e17576040517f506c1ba700000000000000000000000000000000000000000000000000000000815260040160405180910390fd5b8083610e239190611d66565b91505f8211610e5e576040517f02f4cd1f00000000000000000000000000000000000000000000000000000000815260040160405180910390fd5b509091565b5f33905090565b6060610e9b610e776111a6565b60045f9054906101000a90046fffffffffffffffffffffffffffffffff165f6111ce565b905090565b610ea8611767565b7f000000000000000000000000000000000000000000000000000000000000000073ffffffffffffffffffffffffffffffffffffffff1663ddc28c586040518060a001604052808863ffffffff168152602001610f0489611266565b8152602001878152602001868152602001851515815250306040518363ffffffff1660e01b8152600401610f39929190611eac565b6040805180830381865afa158015610f53573d5f5f3e3d5ffd5b505050506040513d601f19601f82011682018060405250810190610f779190611fa3565b9050949350505050565b6002805403610fbc576040517f3ee5aeb500000000000000000000000000000000000000000000000000000000815260040160405180910390fd5b60028081905550565b610fcd61177f565b5f610fda845f01516112d7565b90505f84602001511115610ff657610ff58460200151611324565b5b7f000000000000000000000000000000000000000000000000000000000000000073ffffffffffffffffffffffffffffffffffffffff16632637a450826040518060a001604052808b63ffffffff1681526020016110538c611266565b81526020018a81526020018981526020015f8960200151111515815250866040518463ffffffff1660e01b815260040161108e929190611eac565b60806040518083038185885af11580156110aa573d5f5f3e3d5ffd5b50505050506040513d601f19601f820116820180604052508101906110cf919061206d565b91505095945050505050565b6001600281905550565b5f5f5f9054906101000a900473ffffffffffffffffffffffffffffffffffffffff169050815f5f6101000a81548173ffffffffffffffffffffffffffffffffffffffff021916908373ffffffffffffffffffffffffffffffffffffffff1602179055508173ffffffffffffffffffffffffffffffffffffffff168173ffffffffffffffffffffffffffffffffffffffff167f8be0079c531659141344cd1fd0a4f28419497f9722a3daafe3b4186f6b6457e060405160405180910390a35050565b606060036040516020016111ba91906120d9565b604051602081830303815290604052905090565b606083600361ffff166111ea5f8361146a90919063ffffffff16565b61ffff1614611242576112065f8261146a90919063ffffffff16565b6040517f3a51740d0000000000000000000000000000000000000000000000000000000081526004016112399190612102565b60405180910390fd5b5f61124d85856114cf565b905061125b8660018361153a565b925050509392505050565b5f5f60015f8463ffffffff1663ffffffff1681526020019081526020015f205490505f5f1b81036112ce57826040517ff6ff4fb70000000000000000000000000000000000000000000000000000000081526004016112c5919061211b565b60405180910390fd5b80915050919050565b5f81341461131c57346040517f9f704120000000000000000000000000000000000000000000000000000000008152600401611313919061194b565b60405180910390fd5b819050919050565b5f7f000000000000000000000000000000000000000000000000000000000000000073ffffffffffffffffffffffffffffffffffffffff1663e4fe1d946040518163ffffffff1660e01b8152600401602060405180830381865afa15801561138e573d5f5f3e3d5ffd5b505050506040513d601f19601f820116820180604052508101906113b29190612148565b90505f73ffffffffffffffffffffffffffffffffffffffff168173ffffffffffffffffffffffffffffffffffffffff1603611419576040517f5373352a00000000000000000000000000000000000000000000000000000000815260040160405180910390fd5b611466337f0000000000000000000000000000000000000000000000000000000000000000848473ffffffffffffffffffffffffffffffffffffffff166115f5909392919063ffffffff16565b5050565b5f6002826114789190612173565b835110156114bb576040517f08c379a00000000000000000000000000000000000000000000000000000000081526004016114b290612200565b60405180910390fd5b5f8260028501015190508091505092915050565b60605f826fffffffffffffffffffffffffffffffff16146115115782826040516020016114fd929190612252565b604051602081830303815290604052611532565b82604051602001611522919061227d565b6040516020818303038152906040525b905092915050565b606083600361ffff166115565f8361146a90919063ffffffff16565b61ffff16146115ae576115725f8261146a90919063ffffffff16565b6040517f3a51740d0000000000000000000000000000000000000000000000000000000081526004016115a59190612102565b60405180910390fd5b846001806115bc8651611677565b6115c69190612297565b86866040516020016115dc959493929190612346565b6040516020818303038152906040529150509392505050565b611671848573ffffffffffffffffffffffffffffffffffffffff166323b872dd86868660405160240161162a9392919061239c565b604051602081830303815290604052915060e01b6020820180517bffffffffffffffffffffffffffffffffffffffffffffffffffffffff83818316178352505050506116cc565b50505050565b5f61ffff80168211156116c4576010826040517f6dfcc6500000000000000000000000000000000000000000000000000000000081526004016116bb92919061240a565b60405180910390fd5b819050919050565b5f5f60205f8451602086015f885af1806116eb576040513d5f823e3d81fd5b3d92505f519150505f821461170457600181141561171f565b5f8473ffffffffffffffffffffffffffffffffffffffff163b145b1561176157836040517f5274afe70000000000000000000000000000000000000000000000000000000081526004016117589190611a3c565b60405180910390fd5b50505050565b60405180604001604052805f81526020015f81525090565b60405180606001604052805f81526020015f67ffffffffffffffff1681526020016117a8611767565b81525090565b5f67ffffffffffffffff82169050919050565b6117ca816117ae565b82525050565b5f6040820190506117e35f8301856117c1565b6117f060208301846117c1565b9392505050565b5f604051905090565b5f5ffd5b5f63ffffffff82169050919050565b61181c81611804565b8114611826575f5ffd5b50565b5f8135905061183781611813565b92915050565b5f819050919050565b61184f8161183d565b8114611859575f5ffd5b50565b5f8135905061186a81611846565b92915050565b5f5f6040838503121561188657611885611800565b5b5f61189385828601611829565b92505060206118a48582860161185c565b9150509250929050565b5f73ffffffffffffffffffffffffffffffffffffffff82169050919050565b5f6118d7826118ae565b9050919050565b6118e7816118cd565b81146118f1575f5ffd5b50565b5f81359050611902816118de565b92915050565b5f6020828403121561191d5761191c611800565b5b5f61192a848285016118f4565b91505092915050565b5f819050919050565b61194581611933565b82525050565b5f60208201905061195e5f83018461193c565b92915050565b61196d81611933565b82525050565b604082015f8201516119875f850182611964565b50602082015161199a6020850182611964565b50505050565b5f6040820190506119b35f830184611973565b92915050565b5f819050919050565b5f6119dc6119d76119d2846118ae565b6119b9565b6118ae565b9050919050565b5f6119ed826119c2565b9050919050565b5f6119fe826119e3565b9050919050565b611a0e816119f4565b82525050565b5f602082019050611a275f830184611a05565b92915050565b611a36816118cd565b82525050565b5f602082019050611a4f5f830184611a2d565b92915050565b5f6fffffffffffffffffffffffffffffffff82169050919050565b611a7981611a55565b8114611a83575f5ffd5b50565b5f81359050611a9481611a70565b92915050565b5f60208284031215611aaf57611aae611800565b5b5f611abc84828501611a86565b91505092915050565b5f60208284031215611ada57611ad9611800565b5b5f611ae784828501611829565b91505092915050565b611af98161183d565b82525050565b5f602082019050611b125f830184611af0565b92915050565b5f611b22826119e3565b9050919050565b611b3281611b18565b82525050565b5f602082019050611b4b5f830184611b29565b92915050565b611b5a81611a55565b82525050565b5f602082019050611b735f830184611b51565b92915050565b611b8281611933565b8114611b8c575f5ffd5b50565b5f81519050611b9d81611b79565b92915050565b5f60208284031215611bb857611bb7611800565b5b5f611bc584828501611b8f565b91505092915050565b5f606082019050611be15f830186611a2d565b611bee602083018561193c565b611bfb6040830184611a2d565b949350505050565b5f604082019050611c165f830185611a2d565b611c23602083018461193c565b9392505050565b611c338161183d565b82525050565b611c42816117ae565b82525050565b604082015f820151611c5c5f850182611964565b506020820151611c6f6020850182611964565b50505050565b608082015f820151611c895f850182611c2a565b506020820151611c9c6020850182611c39565b506040820151611caf6040850182611c48565b50505050565b5f60a082019050611cc85f83018561193c565b611cd56020830184611c75565b9392505050565b5f604082019050611cef5f830185611b51565b611cfc6020830184611b51565b9392505050565b611d0c81611804565b82525050565b5f604082019050611d255f830185611d03565b611d326020830184611af0565b9392505050565b7f4e487b71000000000000000000000000000000000000000000000000000000005f52601160045260245ffd5b5f611d7082611933565b9150611d7b83611933565b9250828203905081811115611d9357611d92611d39565b5b92915050565b611da281611804565b82525050565b5f81519050919050565b5f82825260208201905092915050565b8281835e5f83830152505050565b5f601f19601f8301169050919050565b5f611dea82611da8565b611df48185611db2565b9350611e04818560208601611dc2565b611e0d81611dd0565b840191505092915050565b5f8115159050919050565b611e2c81611e18565b82525050565b5f60a083015f830151611e475f860182611d99565b506020830151611e5a6020860182611c2a565b5060408301518482036040860152611e728282611de0565b91505060608301518482036060860152611e8c8282611de0565b9150506080830151611ea16080860182611e23565b508091505092915050565b5f6040820190508181035f830152611ec48185611e32565b9050611ed36020830184611a2d565b9392505050565b5f5ffd5b7f4e487b71000000000000000000000000000000000000000000000000000000005f52604160045260245ffd5b611f1482611dd0565b810181811067ffffffffffffffff82111715611f3357611f32611ede565b5b80604052505050565b5f611f456117f7565b9050611f518282611f0b565b919050565b5f60408284031215611f6b57611f6a611eda565b5b611f756040611f3c565b90505f611f8484828501611b8f565b5f830152506020611f9784828501611b8f565b60208301525092915050565b5f60408284031215611fb857611fb7611800565b5b5f611fc584828501611f56565b91505092915050565b5f81519050611fdc81611846565b92915050565b611feb816117ae565b8114611ff5575f5ffd5b50565b5f8151905061200681611fe2565b92915050565b5f6080828403121561202157612020611eda565b5b61202b6060611f3c565b90505f61203a84828501611fce565b5f83015250602061204d84828501611ff8565b602083015250604061206184828501611f56565b60408301525092915050565b5f6080828403121561208257612081611800565b5b5f61208f8482850161200c565b91505092915050565b5f61ffff82169050919050565b5f8160f01b9050919050565b5f6120bb826120a5565b9050919050565b6120d36120ce82612098565b6120b1565b82525050565b5f6120e482846120c2565b60028201915081905092915050565b6120fc81612098565b82525050565b5f6020820190506121155f8301846120f3565b92915050565b5f60208201905061212e5f830184611d03565b92915050565b5f81519050612142816118de565b92915050565b5f6020828403121561215d5761215c611800565b5b5f61216a84828501612134565b91505092915050565b5f61217d82611933565b915061218883611933565b92508282019050808211156121a05761219f611d39565b5b92915050565b5f82825260208201905092915050565b7f746f55696e7431365f6f75744f66426f756e64730000000000000000000000005f82015250565b5f6121ea6014836121a6565b91506121f5826121b6565b602082019050919050565b5f6020820190508181035f830152612217816121de565b9050919050565b5f8160801b9050919050565b5f6122348261221e565b9050919050565b61224c61224782611a55565b61222a565b82525050565b5f61225d828561223b565b60108201915061226d828461223b565b6010820191508190509392505050565b5f612288828461223b565b60108201915081905092915050565b5f6122a182612098565b91506122ac83612098565b9250828201905061ffff8111156122c6576122c5611d39565b5b92915050565b5f81905092915050565b5f6122e082611da8565b6122ea81856122cc565b93506122fa818560208601611dc2565b80840191505092915050565b5f60ff82169050919050565b5f8160f81b9050919050565b5f61232882612312565b9050919050565b61234061233b82612306565b61231e565b82525050565b5f61235182886122d6565b915061235d828761232f565b60018201915061236d82866120c2565b60028201915061237d828561232f565b60018201915061238d82846122d6565b91508190509695505050505050565b5f6060820190506123af5f830186611a2d565b6123bc6020830185611a2d565b6123c9604083018461193c565b949350505050565b5f819050919050565b5f6123f46123ef6123ea846123d1565b6119b9565b612306565b9050919050565b612404816123da565b82525050565b5f60408201905061241d5f8301856123fb565b61242a602083018461193c565b939250505056fea2646970667358221220c199f933b43749b8c30c8c9f8fed618e992ae8a5e2b6f7e46f59abaa98fd9ed564736f6c634300081e0033",
    "linkReferences": {}
  },
  "methodIdentifiers": {
    "bridgeStorage()": "d3d82578",
    "bridgeTo(address)": "5c6d3da4",
    "bridgedAmount(address)": "348f0209",
    "endpoint()": "5e280f11",
    "gasLimit()": "f68016b7",
    "oAppVersion()": "17442b70",
    "owner()": "8da5cb5b",
    "peers(uint32)": "bb0b6a53",
    "quoteBridge()": "472fa443",
    "renounceOwnership()": "715018a6",
    "setBridgeStorage(address)": "9a9f2e06",
    "setDelegate(address)": "ca5eb5e1",
    "setGasLimit(uint128)": "a1da9dae",
    "setPeer(uint32,bytes32)": "3400288b",
    "transferOwnership(address)": "f2fde38b",
    "transferStorageOwnership(address)": "ee0b5445"
  },
  "id": 50
}