{
  "abi": [
    {
      "type": "constructor",
      "inputs": [
        {
          "name": "_endpoint",
          "type": "address",
          "internalType": "address"
        },
        {
          "name": "_delegate",
          "type": "address",
          "internalType": "address"
        },
        {
          "name": "_owner",
          "type": "address",
          "internalType": "address"
        },
        {
          "name": "_token",
          "type": "address",
          "internalType": "address"
        },
        {
          "name": "_srcEid",
          "type": "uint32",
          "internalType": "uint32"
        },
        {
          "name": "_srcSender",
          "type": "bytes32",
          "internalType": "bytes32"
        }
      ],
      "stateMutability": "nonpayable"
    },
    {
      "type": "function",
      "name": "allowInitializePath",
      "inputs": [
        {
          "name": "origin",
          "type": "tuple",
          "internalType": "struct Origin",
          "components": [
            {
              "name": "srcEid",
              "type": "uint32",
              "internalType": "uint32"
            },
            {
              "name": "sender",
              "type": "bytes32",
              "internalType": "bytes32"
            },
            {
              "name": "nonce",
              "type": "uint64",
              "internalType": "uint64"
            }
          ]
        }
      ],
      "outputs": [
        {
          "name": "",
          "type": "bool",
          "internalType": "bool"
        }
      ],
      "stateMutability": "view"
    },
    {
      "type": "function",
      "name": "clearMessage",
      "inputs": [
        {
          "name": "_origin",
          "type": "tuple",
          "internalType": "struct Origin",
          "components": [
            {
              "name": "srcEid",
              "type": "uint32",
              "internalType": "uint32"
            },
            {
              "name": "sender",
              "type": "bytes32",
              "internalType": "bytes32"
            },
            {
              "name": "nonce",
              "type": "uint64",
              "internalType": "uint64"
            }
          ]
        },
        {
          "name": "_guid",
          "type": "bytes32",
          "internalType": "bytes32"
        },
        {
          "name": "_message",
          "type": "bytes",
          "internalType": "bytes"
        }
      ],
      "outputs": [],
      "stateMutability": "nonpayable"
    },
    {
      "type": "function",
      "name": "endpoint",
      "inputs": [],
      "outputs": [
        {
          "name": "",
          "type": "address",
          "internalType": "contract ILayerZeroEndpointV2"
        }
      ],
      "stateMutability": "view"
    },
    {
      "type": "function",
      "name": "hasStoredPayload",
      "inputs": [
        {
          "name": "srcEid",
          "type": "uint32",
          "internalType": "uint32"
        },
        {
          "name": "sender",
          "type": "bytes32",
          "internalType": "bytes32"
        },
        {
          "name": "nonce",
          "type": "uint64",
          "internalType": "uint64"
        },
        {
          "name": "guid",
          "type": "bytes32",
          "internalType": "bytes32"
        },
        {
          "name": "message",
          "type": "bytes",
          "internalType": "bytes"
        }
      ],
      "outputs": [
        {
          "name": "",
          "type": "bool",
          "internalType": "bool"
        }
      ],
      "stateMutability": "view"
    },
    {
      "type": "function",
      "name": "isComposeMsgSender",
      "inputs": [
        {
          "name": "",
          "type": "tuple",
          "internalType": "struct Origin",
          "components": [
            {
              "name": "srcEid",
              "type": "uint32",
              "internalType": "uint32"
            },
            {
              "name": "sender",
              "type": "bytes32",
              "internalType": "bytes32"
            },
            {
              "name": "nonce",
              "type": "uint64",
              "internalType": "uint64"
            }
          ]
        },
        {
          "name": "",
          "type": "bytes",
          "internalType": "bytes"
        },
        {
          "name": "_sender",
          "type": "address",
          "internalType": "address"
        }
      ],
      "outputs": [
        {
          "name": "",
          "type": "bool",
          "internalType": "bool"
        }
      ],
      "stateMutability": "view"
    },
    {
      "type": "function",
      "name": "lzReceive",
      "inputs": [
        {
          "name": "_origin",
          "type": "tuple",
          "internalType": "struct Origin",
          "components": [
            {
              "name": "srcEid",
              "type": "uint32",
              "internalType": "uint32"
            },
            {
              "name": "sender",
              "type": "bytes32",
              "internalType": "bytes32"
            },
            {
              "name": "nonce",
              "type": "uint64",
              "internalType": "uint64"
            }
          ]
        },
        {
          "name": "_guid",
          "type": "bytes32",
          "internalType": "bytes32"
        },
        {
          "name": "_message",
          "type": "bytes",
          "internalType": "bytes"
        },
        {
          "name": "_executor",
          "type": "address",
          "internalType": "address"
        },
        {
          "name": "_extraData",
          "type": "bytes",
          "internalType": "bytes"
        }
      ],
      "outputs": [],
      "stateMutability": "payable"
    },
    {
      "type": "function",
      "name": "manualRetry",
      "inputs": [
        {
          "name": "_origin",
          "type": "tuple",
          "internalType": "struct Origin",
          "components": [
            {
              "name": "srcEid",
              "type": "uint32",
              "internalType": "uint32"
            },
            {
              "name": "sender",
              "type": "bytes32",
              "internalType": "bytes32"
            },
            {
              "name": "nonce",
              "type": "uint64",
              "internalType": "uint64"
            }
          ]
        },
        {
          "name": "_guid",
          "type": "bytes32",
          "internalType": "bytes32"
        },
        {
          "name": "_message",
          "type": "bytes",
          "internalType": "bytes"
        },
        {
          "name": "_extraData",
          "type": "bytes",
          "internalType": "bytes"
        }
      ],
      "outputs": [],
      "stateMutability": "nonpayable"
    },
    {
      "type": "function",
      "name": "nextNonce",
      "inputs": [
        {
          "name": "",
          "type": "uint32",
          "internalType": "uint32"
        },
        {
          "name": "",
          "type": "bytes32",
          "internalType": "bytes32"
        }
      ],
      "outputs": [
        {
          "name": "nonce",
          "type": "uint64",
          "internalType": "uint64"
        }
      ],
      "stateMutability": "view"
    },
    {
      "type": "function",
      "name": "oAppVersion",
      "inputs": [],
      "outputs": [
        {
          "name": "senderVersion",
          "type": "uint64",
          "internalType": "uint64"
        },
        {
          "name": "receiverVersion",
          "type": "uint64",
          "internalType": "uint64"
        }
      ],
      "stateMutability": "view"
    },
    {
      "type": "function",
      "name": "owner",
      "inputs": [],
      "outputs": [
        {
          "name": "",
          "type": "address",
          "internalType": "address"
        }
      ],
      "stateMutability": "view"
    },
    {
      "type": "function",
      "name": "peers",
      "inputs": [
        {
          "name": "eid",
          "type": "uint32",
          "internalType": "uint32"
        }
      ],
      "outputs": [
        {
          "name": "peer",
          "type": "bytes32",
          "internalType": "bytes32"
        }
      ],
      "stateMutability": "view"
    },
    {
      "type": "function",
      "name": "renounceOwnership",
      "inputs": [],
      "outputs": [],
      "stateMutability": "nonpayable"
    },
    {
      "type": "function",
      "name": "setDelegate",
      "inputs": [
        {
          "name": "_delegate",
          "type": "address",
          "internalType": "address"
        }
      ],
      "outputs": [],
      "stateMutability": "nonpayable"
    },
    {
      "type": "function",
      "name": "setPeer",
      "inputs": [
        {
          "name": "_eid",
          "type": "uint32",
          "internalType": "uint32"
        },
        {
          "name": "_peer",
          "type": "bytes32",
          "internalType": "bytes32"
        }
      ],
      "outputs": [],
      "stateMutability": "nonpayable"
    },
    {
      "type": "function",
      "name": "transferOwnership",
      "inputs": [
        {
          "name": "newOwner",
          "type": "address",
          "internalType": "address"
        }
      ],
      "outputs": [],
      "stateMutability": "nonpayable"
    },
    {
      "type": "function",
      "name": "withdrawTokens",
      "inputs": [
        {
          "name": "to",
          "type": "address",
          "internalType": "address"
        },
        {
          "name": "amount",
          "type": "uint256",
          "internalType": "uint256"
        }
      ],
      "outputs": [],
      "stateMutability": "nonpayable"
    },
    {
      "type": "event",
      "name": "BridgeFulfilled",
      "inputs": [
        {
          "name": "srcUser",
          "type": "address",
          "indexed": true,
          "internalType": "address"
        },
        {
          "name": "recipient",
          "type": "address",
          "indexed": true,
          "internalType": "address"
        },
        {
          "name": "amount",
          "type": "uint256",
          "indexed": false,
          "internalType": "uint256"
        }
      ],
      "anonymous": false
    },
    {
      "type": "event",
      "name": "OwnershipTransferred",
      "inputs": [
        {
          "name": "previousOwner",
          "type": "address",
          "indexed": true,
          "internalType": "address"
        },
        {
          "name": "newOwner",
          "type": "address",
          "indexed": true,
          "internalType": "address"
        }
      ],
      "anonymous": false
    },
    {
      "type": "event",
      "name": "PeerSet",
      "inputs": [
        {
          "name": "eid",
          "type": "uint32",
          "indexed": false,
          "internalType": "uint32"
        },
        {
          "name": "peer",
          "type": "bytes32",
          "indexed": false,
          "internalType": "bytes32"
        }
      ],
      "anonymous": false
    },
    {
      "type": "event",
      "name": "TokensWithdrawn",
      "inputs": [
        {
          "name": "to",
          "type": "address",
          "indexed": true,
          "internalType": "address"
        },
        {
          "name": "amount",
          "type": "uint256",
          "indexed": false,
          "internalType": "uint256"
        }
      ],
      "anonymous": false
    },
    {
      "type": "error",
      "name": "BadSender",
      "inputs": []
    },
    {
      "type": "error",
      "name": "BadSrcEid",
      "inputs": []
    },
    {
      "type": "error",
      "name": "InvalidAddress",
      "inputs": []
    },
    {
      "type": "error",
      "name": "InvalidAmount",
      "inputs": []
    },
    {
      "type": "error",
      "name": "InvalidDelegate",
      "inputs": []
    },
    {
      "type": "error",
      "name": "InvalidEndpointCall",
      "inputs": []
    },
    {
      "type": "error",
      "name": "NoPeer",
      "inputs": [
        {
          "name": "eid",
          "type": "uint32",
          "internalType": "uint32"
        }
      ]
    },
    {
      "type": "error",
      "name": "OnlyEndpoint",
      "inputs": [
        {
          "name": "addr",
          "type": "address",
          "internalType": "address"
        }
      ]
    },
    {
      "type": "error",
      "name": "OnlyPeer",
      "inputs": [
        {
          "name": "eid",
          "type": "uint32",
          "internalType": "uint32"
        },
        {
          "name": "sender",
          "type": "bytes32",
          "internalType": "bytes32"
        }
      ]
    },
    {
      "type": "error",
      "name": "OwnableInvalidOwner",
      "inputs": [
        {
          "name": "owner",
          "type": "address",
          "internalType": "address"
        }
      ]
    },
    {
      "type": "error",
      "name": "OwnableUnauthorizedAccount",
      "inputs": [
        {
          "name": "account",
          "type": "address",
          "internalType": "address"
        }
      ]
    },
    {
      "type": "error",
      "name": "RecipientZero",
      "inputs": []
    },
    {
      "type": "error",
      "name": "SafeERC20FailedOperation",
      "inputs": [
        {
          "name": "token",
          "type": "address",
          "internalType": "address"
        }
      ]
    }
  ],
  "bytecode": {
    "object": "0x610100604052348015610010575f5ffd5b50604051611e7f380380611e7f8339818101604052810190610032919061039e565b8585855f73ffffffffffffffffffffffffffffffffffffffff168173ffffffffffffffffffffffffffffffffffffffff16036100a5575f6040517f1e4fbdf700000000000000000000000000000000000000000000000000000000815260040161009c9190610436565b60405180910390fd5b6100b48161021360201b60201c565b508173ffffffffffffffffffffffffffffffffffffffff1660808173ffffffffffffffffffffffffffffffffffffffff16815250505f73ffffffffffffffffffffffffffffffffffffffff168173ffffffffffffffffffffffffffffffffffffffff160361014e576040517fb586360400000000000000000000000000000000000000000000000000000000815260040160405180910390fd5b60805173ffffffffffffffffffffffffffffffffffffffff1663ca5eb5e1826040518263ffffffff1660e01b81526004016101899190610436565b5f604051808303815f87803b1580156101a0575f5ffd5b505af11580156101b2573d5f5f3e3d5ffd5b5050505050508273ffffffffffffffffffffffffffffffffffffffff1660a08173ffffffffffffffffffffffffffffffffffffffff16815250508163ffffffff1660c08163ffffffff16815250508060e0818152505050505050505061044f565b5f5f5f9054906101000a900473ffffffffffffffffffffffffffffffffffffffff169050815f5f6101000a81548173ffffffffffffffffffffffffffffffffffffffff021916908373ffffffffffffffffffffffffffffffffffffffff1602179055508173ffffffffffffffffffffffffffffffffffffffff168173ffffffffffffffffffffffffffffffffffffffff167f8be0079c531659141344cd1fd0a4f28419497f9722a3daafe3b4186f6b6457e060405160405180910390a35050565b5f5ffd5b5f73ffffffffffffffffffffffffffffffffffffffff82169050919050565b5f610301826102d8565b9050919050565b610311816102f7565b811461031b575f5ffd5b50565b5f8151905061032c81610308565b92915050565b5f63ffffffff82169050919050565b61034a81610332565b8114610354575f5ffd5b50565b5f8151905061036581610341565b92915050565b5f819050919050565b61037d8161036b565b8114610387575f5ffd5b50565b5f8151905061039881610374565b92915050565b5f5f5f5f5f5f60c087890312156103b8576103b76102d4565b5b5f6103c589828a0161031e565b96505060206103d689828a0161031e565b95505060406103e789828a0161031e565b94505060606103f889828a0161031e565b935050608061040989828a01610357565b92505060a061041a89828a0161038a565b9150509295509295509295565b610430816102f7565b82525050565b5f6020820190506104495f830184610427565b92915050565b60805160a05160c05160e0516119d96104a65f395f50505f50505f81816104700152610c6401525f818161053c015281816105f10152818161069c015281816107c80152818161086a015261092101526119d95ff3fe6080604052600436106100f2575f3560e01c80637d25a05e11610089578063bb0b6a5311610058578063bb0b6a53146102fb578063ca5eb5e114610337578063f2fde38b1461035f578063ff7bd03d14610387576100f2565b80637d25a05e1461023157806382413eac1461026d5780638da5cb5b146102a9578063b9a9c0d6146102d3576100f2565b806317442b70116100c557806317442b701461019e5780633400288b146101c95780635e280f11146101f1578063715018a61461021b576100f2565b806306b091f9146100f65780630787bddb1461011e5780630a96997d1461015a57806313137d6514610182575b5f5ffd5b348015610101575f5ffd5b5061011c60048036038101906101179190610f70565b6103c3565b005b348015610129575f5ffd5b50610144600480360381019061013f91906110b8565b610506565b6040516101519190611168565b60405180910390f35b348015610165575f5ffd5b50610180600480360381019061017b91906111a3565b6105e7565b005b61019c60048036038101906101979190611214565b610683565b005b3480156101a9575f5ffd5b506101b26107a3565b6040516101c09291906112da565b60405180910390f35b3480156101d4575f5ffd5b506101ef60048036038101906101ea9190611301565b6107b0565b005b3480156101fc575f5ffd5b506102056107c6565b604051610212919061139a565b60405180910390f35b348015610226575f5ffd5b5061022f6107ea565b005b34801561023c575f5ffd5b5061025760048036038101906102529190611301565b6107fd565b60405161026491906113b3565b60405180910390f35b348015610278575f5ffd5b50610293600480360381019061028e91906113cc565b610807565b6040516102a09190611168565b60405180910390f35b3480156102b4575f5ffd5b506102bd610841565b6040516102ca919061144c565b60405180910390f35b3480156102de575f5ffd5b506102f960048036038101906102f49190611465565b610868565b005b348015610306575f5ffd5b50610321600480360381019061031c9190611508565b610902565b60405161032e9190611542565b60405180910390f35b348015610342575f5ffd5b5061035d6004803603810190610358919061155b565b610917565b005b34801561036a575f5ffd5b506103856004803603810190610380919061155b565b6109a8565b005b348015610392575f5ffd5b506103ad60048036038101906103a89190611586565b610a2c565b6040516103ba9190611168565b60405180910390f35b6103cb610a69565b5f73ffffffffffffffffffffffffffffffffffffffff168273ffffffffffffffffffffffffffffffffffffffff1603610430576040517fe6c4247b00000000000000000000000000000000000000000000000000000000815260040160405180910390fd5b5f8111610469576040517f2c5211c600000000000000000000000000000000000000000000000000000000815260040160405180910390fd5b6104b482827f000000000000000000000000000000000000000000000000000000000000000073ffffffffffffffffffffffffffffffffffffffff16610af09092919063ffffffff16565b8173ffffffffffffffffffffffffffffffffffffffff167f6352c5382c4a4578e712449ca65e83cdb392d045dfcf1cad9615189db2da244b826040516104fa91906115c0565b60405180910390a25050565b5f5f84848460405160200161051d93929190611635565b60405160208183030381529060405290505f81805190602001209050807f000000000000000000000000000000000000000000000000000000000000000073ffffffffffffffffffffffffffffffffffffffff1663c9fc7bcd308c8c8c6040518563ffffffff1660e01b8152600401610599949392919061166d565b602060405180830381865afa1580156105b4573d5f5f3e3d5ffd5b505050506040513d601f19601f820116820180604052508101906105d891906116c4565b14925050509695505050505050565b6105ef610a69565b7f000000000000000000000000000000000000000000000000000000000000000073ffffffffffffffffffffffffffffffffffffffff16632a56c1b030868686866040518663ffffffff1660e01b8152600401610650959493929190611802565b5f604051808303815f87803b158015610667575f5ffd5b505af1158015610679573d5f5f3e3d5ffd5b5050505050505050565b3373ffffffffffffffffffffffffffffffffffffffff167f000000000000000000000000000000000000000000000000000000000000000073ffffffffffffffffffffffffffffffffffffffff161461071357336040517f91ac5e4f00000000000000000000000000000000000000000000000000000000815260040161070a919061144c565b60405180910390fd5b8660200135610732885f01602081019061072d9190611508565b610b6f565b1461078b57865f0160208101906107499190611508565b87602001356040517fc26bebcc00000000000000000000000000000000000000000000000000000000815260040161078292919061184e565b60405180910390fd5b61079a87878787878787610be0565b50505050505050565b5f5f5f6002915091509091565b6107b8610a69565b6107c28282610d19565b5050565b7f000000000000000000000000000000000000000000000000000000000000000081565b6107f2610a69565b6107fb5f610d78565b565b5f5f905092915050565b5f3073ffffffffffffffffffffffffffffffffffffffff168273ffffffffffffffffffffffffffffffffffffffff16149050949350505050565b5f5f5f9054906101000a900473ffffffffffffffffffffffffffffffffffffffff16905090565b7f000000000000000000000000000000000000000000000000000000000000000073ffffffffffffffffffffffffffffffffffffffff16630c0c389e873088888888886040518863ffffffff1660e01b81526004016108cd9796959493929190611875565b5f604051808303815f87803b1580156108e4575f5ffd5b505af11580156108f6573d5f5f3e3d5ffd5b50505050505050505050565b6001602052805f5260405f205f915090505481565b61091f610a69565b7f000000000000000000000000000000000000000000000000000000000000000073ffffffffffffffffffffffffffffffffffffffff1663ca5eb5e1826040518263ffffffff1660e01b8152600401610978919061144c565b5f604051808303815f87803b15801561098f575f5ffd5b505af11580156109a1573d5f5f3e3d5ffd5b5050505050565b6109b0610a69565b5f73ffffffffffffffffffffffffffffffffffffffff168173ffffffffffffffffffffffffffffffffffffffff1603610a20575f6040517f1e4fbdf7000000000000000000000000000000000000000000000000000000008152600401610a17919061144c565b60405180910390fd5b610a2981610d78565b50565b5f816020013560015f845f016020810190610a479190611508565b63ffffffff1663ffffffff1681526020019081526020015f2054149050919050565b610a71610e39565b73ffffffffffffffffffffffffffffffffffffffff16610a8f610841565b73ffffffffffffffffffffffffffffffffffffffff1614610aee57610ab2610e39565b6040517f118cdaa7000000000000000000000000000000000000000000000000000000008152600401610ae5919061144c565b60405180910390fd5b565b610b6a838473ffffffffffffffffffffffffffffffffffffffff1663a9059cbb8585604051602401610b239291906118d8565b604051602081830303815290604052915060e01b6020820180517bffffffffffffffffffffffffffffffffffffffffffffffffffffffff8381831617835250505050610e40565b505050565b5f5f60015f8463ffffffff1663ffffffff1681526020019081526020015f205490505f5f1b8103610bd757826040517ff6ff4fb7000000000000000000000000000000000000000000000000000000008152600401610bce91906118ff565b60405180910390fd5b80915050919050565b5f5f5f8787810190610bf29190611953565b9250925092505f73ffffffffffffffffffffffffffffffffffffffff168373ffffffffffffffffffffffffffffffffffffffff1603610c5d576040517f3d9eb1db00000000000000000000000000000000000000000000000000000000815260040160405180910390fd5b610ca883837f000000000000000000000000000000000000000000000000000000000000000073ffffffffffffffffffffffffffffffffffffffff16610af09092919063ffffffff16565b8273ffffffffffffffffffffffffffffffffffffffff168173ffffffffffffffffffffffffffffffffffffffff167fdd9f27a2298663148e8518b15d063f9febfad5269089f80b35cd6f59074190c684604051610d0591906115c0565b60405180910390a350505050505050505050565b8060015f8463ffffffff1663ffffffff1681526020019081526020015f20819055507f238399d427b947898edb290f5ff0f9109849b1c3ba196a42e35f00c50a54b98b8282604051610d6c92919061184e565b60405180910390a15050565b5f5f5f9054906101000a900473ffffffffffffffffffffffffffffffffffffffff169050815f5f6101000a81548173ffffffffffffffffffffffffffffffffffffffff021916908373ffffffffffffffffffffffffffffffffffffffff1602179055508173ffffffffffffffffffffffffffffffffffffffff168173ffffffffffffffffffffffffffffffffffffffff167f8be0079c531659141344cd1fd0a4f28419497f9722a3daafe3b4186f6b6457e060405160405180910390a35050565b5f33905090565b5f5f60205f8451602086015f885af180610e5f576040513d5f823e3d81fd5b3d92505f519150505f8214610e78576001811415610e93565b5f8473ffffffffffffffffffffffffffffffffffffffff163b145b15610ed557836040517f5274afe7000000000000000000000000000000000000000000000000000000008152600401610ecc919061144c565b60405180910390fd5b50505050565b5f5ffd5b5f5ffd5b5f73ffffffffffffffffffffffffffffffffffffffff82169050919050565b5f610f0c82610ee3565b9050919050565b610f1c81610f02565b8114610f26575f5ffd5b50565b5f81359050610f3781610f13565b92915050565b5f819050919050565b610f4f81610f3d565b8114610f59575f5ffd5b50565b5f81359050610f6a81610f46565b92915050565b5f5f60408385031215610f8657610f85610edb565b5b5f610f9385828601610f29565b9250506020610fa485828601610f5c565b9150509250929050565b5f63ffffffff82169050919050565b610fc681610fae565b8114610fd0575f5ffd5b50565b5f81359050610fe181610fbd565b92915050565b5f819050919050565b610ff981610fe7565b8114611003575f5ffd5b50565b5f8135905061101481610ff0565b92915050565b5f67ffffffffffffffff82169050919050565b6110368161101a565b8114611040575f5ffd5b50565b5f813590506110518161102d565b92915050565b5f5ffd5b5f5ffd5b5f5ffd5b5f5f83601f84011261107857611077611057565b5b8235905067ffffffffffffffff8111156110955761109461105b565b5b6020830191508360018202830111156110b1576110b061105f565b5b9250929050565b5f5f5f5f5f5f60a087890312156110d2576110d1610edb565b5b5f6110df89828a01610fd3565b96505060206110f089828a01611006565b955050604061110189828a01611043565b945050606061111289828a01611006565b935050608087013567ffffffffffffffff81111561113357611132610edf565b5b61113f89828a01611063565b92509250509295509295509295565b5f8115159050919050565b6111628161114e565b82525050565b5f60208201905061117b5f830184611159565b92915050565b5f5ffd5b5f6060828403121561119a57611199611181565b5b81905092915050565b5f5f5f5f60a085870312156111bb576111ba610edb565b5b5f6111c887828801611185565b94505060606111d987828801611006565b935050608085013567ffffffffffffffff8111156111fa576111f9610edf565b5b61120687828801611063565b925092505092959194509250565b5f5f5f5f5f5f5f60e0888a03121561122f5761122e610edb565b5b5f61123c8a828b01611185565b975050606061124d8a828b01611006565b965050608088013567ffffffffffffffff81111561126e5761126d610edf565b5b61127a8a828b01611063565b955095505060a061128d8a828b01610f29565b93505060c088013567ffffffffffffffff8111156112ae576112ad610edf565b5b6112ba8a828b01611063565b925092505092959891949750929550565b6112d48161101a565b82525050565b5f6040820190506112ed5f8301856112cb565b6112fa60208301846112cb565b9392505050565b5f5f6040838503121561131757611316610edb565b5b5f61132485828601610fd3565b925050602061133585828601611006565b9150509250929050565b5f819050919050565b5f61136261135d61135884610ee3565b61133f565b610ee3565b9050919050565b5f61137382611348565b9050919050565b5f61138482611369565b9050919050565b6113948161137a565b82525050565b5f6020820190506113ad5f83018461138b565b92915050565b5f6020820190506113c65f8301846112cb565b92915050565b5f5f5f5f60a085870312156113e4576113e3610edb565b5b5f6113f187828801611185565b945050606085013567ffffffffffffffff81111561141257611411610edf565b5b61141e87828801611063565b9350935050608061143187828801610f29565b91505092959194509250565b61144681610f02565b82525050565b5f60208201905061145f5f83018461143d565b92915050565b5f5f5f5f5f5f60c0878903121561147f5761147e610edb565b5b5f61148c89828a01611185565b965050606061149d89828a01611006565b955050608087013567ffffffffffffffff8111156114be576114bd610edf565b5b6114ca89828a01611063565b945094505060a087013567ffffffffffffffff8111156114ed576114ec610edf565b5b6114f989828a01611063565b92509250509295509295509295565b5f6020828403121561151d5761151c610edb565b5b5f61152a84828501610fd3565b91505092915050565b61153c81610fe7565b82525050565b5f6020820190506115555f830184611533565b92915050565b5f602082840312156115705761156f610edb565b5b5f61157d84828501610f29565b91505092915050565b5f6060828403121561159b5761159a610edb565b5b5f6115a884828501611185565b91505092915050565b6115ba81610f3d565b82525050565b5f6020820190506115d35f8301846115b1565b92915050565b5f819050919050565b6115f36115ee82610fe7565b6115d9565b82525050565b5f81905092915050565b828183375f83830152505050565b5f61161c83856115f9565b9350611629838584611603565b82840190509392505050565b5f61164082866115e2565b602082019150611651828486611611565b9150819050949350505050565b61166781610fae565b82525050565b5f6080820190506116805f83018761143d565b61168d602083018661165e565b61169a6040830185611533565b6116a760608301846112cb565b95945050505050565b5f815190506116be81610ff0565b92915050565b5f602082840312156116d9576116d8610edb565b5b5f6116e6848285016116b0565b91505092915050565b5f6116fd6020840184610fd3565b905092915050565b61170e81610fae565b82525050565b5f6117226020840184611006565b905092915050565b61173381610fe7565b82525050565b5f6117476020840184611043565b905092915050565b6117588161101a565b82525050565b6060820161176e5f8301836116ef565b61177a5f850182611705565b506117886020830183611714565b611795602085018261172a565b506117a36040830183611739565b6117b0604085018261174f565b50505050565b5f82825260208201905092915050565b5f601f19601f8301169050919050565b5f6117e183856117b6565b93506117ee838584611603565b6117f7836117c6565b840190509392505050565b5f60c0820190506118155f83018861143d565b611822602083018761175e565b61182f6080830186611533565b81810360a08301526118428184866117d6565b90509695505050505050565b5f6040820190506118615f83018561165e565b61186e6020830184611533565b9392505050565b5f60e0820190506118885f83018a61175e565b611895606083018961143d565b6118a26080830188611533565b81810360a08301526118b58186886117d6565b905081810360c08301526118ca8184866117d6565b905098975050505050505050565b5f6040820190506118eb5f83018561143d565b6118f860208301846115b1565b9392505050565b5f6020820190506119125f83018461165e565b92915050565b5f61192282610ee3565b9050919050565b61193281611918565b811461193c575f5ffd5b50565b5f8135905061194d81611929565b92915050565b5f5f5f6060848603121561196a57611969610edb565b5b5f6119778682870161193f565b935050602061198886828701610f5c565b92505060406119998682870161193f565b915050925092509256fea26469706673582212207202fd70410df61eca847a9ccc44a55e49e9ecf277f8e0c05a6f0c0dbacc0b6564736f6c634300081e0033",
    "linkReferences": {}
  },
  "methodIdentifiers": {
    "allowInitializePath((uint32,bytes32,uint64))": "ff7bd03d",
    "clearMessage((uint32,bytes32,uint64),bytes32,bytes)": "0a96997d",
    "endpoint()": "5e280f11",
    "hasStoredPayload(uint32,bytes32,uint64,bytes32,bytes)": "0787bddb",
    "isComposeMsgSender((uint32,bytes32,uint64),bytes,address)": "82413eac",
    "lzReceive((uint32,bytes32,uint64),bytes32,bytes,address,bytes)": "13137d65",
    "manualRetry((uint32,bytes32,uint64),bytes32,bytes,bytes)": "b9a9c0d6",
    "nextNonce(uint32,bytes32)": "7d25a05e",
    "oAppVersion()": "17442b70",
    "owner()": "8da5cb5b",
    "peers(uint32)": "bb0b6a53",
    "renounceOwnership()": "715018a6",
    "setDelegate(address)": "ca5eb5e1",
    "setPeer(uint32,bytes32)": "3400288b",
    "transferOwnership(address)": "f2fde38b",
    "withdrawTokens(address,uint256)": "06b091f9"
  },
  "id": 52
}